:10000000003C0120594402006D6102006D61020054
:100010006D6102006D6102006D6102006D610200A0
:100020006D6102006D6102006D6102006D61020090
:0C0030006D6102006D6102005DEF0000D8
:10003C002DE9F04F99B0054680780224532800F240
:10004C00C785DFE810F054009900A800B800C8007C
:10005C00DA00EA000C011B01C5052A01380159011F
:10006C00C505C505C505C505C505C505C505C50534
:10007C00C505C505C505C505C505C505C505C50524
:10008C00C505C505C505650188019401A001AB0135
:10009C00BA01D401EB0107023A02C505C505C50535
:1000AC00C505C505C505600276028C02A202B80220
:1000BC00CD02DE020303C505C505C505C505C5058D
:1000CC00C50538034C036003C5056D037703950321
:1000DC009E03AA03B603C503CF03F2030F04340433
:1000EC003C044E045B0467048B0492049504EC1CE2
:1000FC00E97A2A7B002320461DF0E6FA8DF81800D9
:10010C0006AB65200021012221F040FDDFF8180B21
:10011C000078012800F25B85204628F02AFF002891
:10012C0000F0558505460079012840F0508528F0EF
:10013C00A9FC00274FF400018DF83F008DF8380022
:10014C00000ACDF83A108DF841708DF83E708DF89C
:10015C0040008DF839000EAE214606F10A0028F059
:10016C0080FF2978152233460170697887704170B9
:10017C004520FF2100F029BD28F028FF6979AA79D4
:10018C000023002424F096FC8DF838000EAB65207B
:10019C00012100F053BC28F0B7FC28F037FE0146D3
:1001AC000EA8022228F0C1FE8DF8180006AB6520BF
:1001BC00022100F043BC28F0A7FC28F027FE0146E2
:1001CC000EA8032228F0B1FE8DF8180006AB6520AE
:1001DC00032100F033BC28F097FC28F017FEEA79D5
:1001EC0001460EA80023002426F0D8FA8DF818003A
:1001FC0006AB6520042100F021BC28F085FC28F01A
:10020C0005FE01460EA8052228F08FFE8DF8180079
:10021C0006AB6520052100F011BC0020DFF8304A48
:10022C0028F054FBADF85800681DA0478046E81D27
:10023C00A04795F809B0824605F10A07BBF1100FEB
:10024C0000F2AE830EAC5E46002E00F0AC83384656
:10025C0028F058FF24F8020B013E0237F4E728F08F
:10026C0053FC28F0D3FD01460EA8102228F05DFEA9
:10027C008DF8180006AB65200721DFE328F044FC5D
:10028C0028F0C4FD01460EA8112228F04EFE8DF870
:10029C00180006AB65200821D0E328F097FE6A7B96
:1002AC00691D0023002423F005F98DF838000EABEE
:1002BC0065200A21C2E302208DF8200028F086FE7A
:1002CC00ADF81800681D28F01DFFEA79064605F107
:1002DC0008018DF838200EAF781C28F0D5F906A847
:1002EC0031463A46002300241FF012FE8DF85800C8
:1002FC0016AB65200B21A1E328F068FE0021002439
:10030C0022F0F4FA8DF838000EAB65200C2195E341
:10031C000020DFF83C4928F0D9FAADF85800681DE8
:10032C00A047804695F80F9005F11000A04705F105
:10033C001304AD7C83460F2D00F247830EAE2F467F
:10034C00002F00F04583204628F0DCFE26F8020B37
:10035C00013F0234F4E728F0D7FB28F0BEFA28F06E
:10036C0083F940F0468306A828F07BFE46E328F08C
:10037C00CBFB28F0B2FA28F077F940F04D8306A8B1
:10038C0028F06FFE4DE328F021FE28F012FD8DF8C9
:10039C0038000EAB6520232100F016BCDFF888185E
:1003AC00C8208DF81800E81C0978002900F081831A
:1003BC0027F0E5FD8DF81800A3E36879EE1CFE2804
:1003CC000BD1A879FF2808D12878082805D3304606
:1003DC0028F098FE314624F095FD0EA9304627F002
:1003EC00C3FA002800F09183054600249FE3E81C23
:1003FC00042125F0FBFAE97928F0A6FEDFF8441871
:10040C008DF83800022027F0E3FEDFF83C180320BB
:10041C0027F0DEFE0EAB65202621D5E328F0D0FDBB
:10042C00044605F10E0028F06DFE297C6A7C03461B
:10043C00E878CDE90012AA1D214624F0D7FFDFF899
:10044C0000188DF83800042027F0C2FE0EAB652092
:10045C002721B9E34FF00208E81C8DF8408028F002
:10046C0051FEADF8380068798DF85800A81D28F0B9
:10047C0049FE2E7A044600270935CDE9005716A807
:10048C000EA92246334620F055FB28F05BFB10D119
:10049C00DFF890078DF84080CDE9005722463346AF
:1004AC00C08AADF8380016A80EA920F043FB8DF8D1
:1004BC00180006AB6520282186E30226E81C8DF87F
:1004CC00406028F01FFE28F0A1FCED7904460EA830
:1004DC00002321462A4627F0E9F828F033FB0ED1F9
:1004EC00DFF840078DF8406021462A460023C08A79
:1004FC00ADF838000EA827F0D9F88DF8180006AB27
:10050C006520292160E328F0FFFAADF83800681D5A
:10051C00042125F06BFA6A7AAB7A00240146009428
:10052C000EA824F08FFF8DF8180006AB6520302143
:10053C0084E228F0E9FA28F041FC312201238DF8FD
:10054C00580016A8CDE90004DFF8F0060EA920F03B
:10055C00F1FA8DF8180006AB652031216EE228F017
:10056C00D3FA28F02BFC322201238DF8580016A860
:10057C00CDE90004DFF8C4060EA920F0DBFA8DF8F3
:10058C00180006AB6520322158E228F0BDFA28F09D
:10059C0015FC332201238DF8580016A8CDE9000470
:1005AC00DFF898060EA920F0C5FA8DF8180006ABF6
:1005BC006520332142E228F0A7FAADF83800687BB9
:1005CC000024691D0094C0F3400200F001030EA842
:1005DC0022F06EF98DF8180006AB652034212DE25F
:1005EC0028F092FA6A7BADF83800691D0EA800233A
:1005FC00002425F061FC8DF8180006AB6520352130
:10060C001CE22C4614F8030B04281ABFE8782C1DA6
:10061C0002208DF84000204628F074FDDFF81866A3
:10062C00A5780121E278ADF8380000230024317060
:10063C000EA829461EF016F98DF8180028463470BD
:10064C0025F076FC06AB65203621F7E128F0BEFCE0
:10065C00ADF83800687904218DF84000A81D25F00C
:10066C00C5F90446AE7AEF7A05F10C0028F04AFD84
:10067C00DFF8B0850546214632463B4628F003F9A3
:10068C000EA820F033FA28F05DFA10D10220214692
:10069C0032463B468DF84000B8F81600ADF83800ED
:1006AC0028F0F1F80EA820F021FA8DF8180006AB0E
:1006BC006520372188E26C7828F088FC0146DFF849
:1006CC00740500781FF0FEFB8DF8380004F0E00094
:1006DC00202840F07C820EAB65203E2174E26C78C1
:1006EC0028F074FC0146DFF84C05007820F00AFF76
:1006FC008DF8380004F0E000202840F068820EAB42
:10070C0065203F2160E200206C788DF83800DFF81E
:10071C0018050078411E022980F09481022095E191
:10072C0028F054FC28F045FB8DF838000EAB652002
:10073C00422149E2002006908DF83D00CDF83900A9
:10074C00E81C06A926F03CF88DF83800069850B144
:10075C0028F0A0F881788DF83B10C1788DF83C100A
:10076C0000798DF83D000EAB6520432106222CE26A
:10077C00E81C27F004FC8DF838000EAB65204421F2
:10078C0022E228F023FC6979AA790DF031FD8DF86D
:10079C0038000EAB6520452116E228F017FC69796C
:1007AC00AA7919F01FFF8DF838000EAB6520462191
:1007BC000AE2EC7828F004FC0146204622F02CF9E1
:1007CC00B0FA80F0472140098DF838000EABC1E13A
:1007DC00E87800248DF8384022F0DCFE0EAB652062
:1007EC0047212BE1E8780EA926F00EF806468DF885
:1007FC00180040000130C5B2284628F087FC0028BC
:10080C0000F0A381044600F8016B00219DF818202C
:10081C00914280F0BE809DF83830013100F8023BE7
:10082C009DF8393000F8013CF2E70EAC132120465C
:10083C0027F0CEFDEE7828F0C3FB0146304625F0BC
:10084C009FFB002800F088810021231D8DF83810B3
:10085C0028F020F8C11C827818468DF83B2027F030
:10086C0013FF7CE10020EC78CDF84600CDF8420077
:10087C00CDF83E00CDF83A0028F0A2FBAA79ADF8ED
:10088C0038000F2A28BF0F228DF83A2022B10EA86B
:10089C00E91D033027F0F8FE0EA9204601221CF0BA
:1008AC00EBF98DF8180006AB65204B218CE127F095
:1008BC00E9FC8DF838000EAB65204C2184E1E8781A
:1008CC0029798DF838100EA9032800F05F810228D1
:1008DC0000F06281012840F06681522020F056FE23
:1008EC0064E128F073FB69790246A81D1AF0E4FC58
:1008FC008DF838000EAB65204E2165E128F066FBC3
:10090C000146687919F0EAF98DF838000EAB6520CC
:10091C004F2159E1C34D0822E88A05F13901ADF8A0
:10092C003800C24800788DF83A00A88CADF83B002E
:10093C00688BADF83D000EACE01D27F0A5FE04F170
:10094C000F0005F11C01082227F09EFE287E502185
:10095C00182223468DF84F00652036E1B248007806
:10096C00002800F0018112200AE120F00BF82EE1A2
:10097C0000208DF83800E878010606D5A94910F05A
:10098C007F0018BF012081F868000EAB6520532151
:10099C001AE1652049212A46234621F0F7F839E16E
:1009AC0080208DF863003E78102E52D80DF1180976
:1009BC00013734464D46002C4DD0384628F0A2FB6A
:1009CC0025F8020B013C0237F5E780208DF8630017
:1009DC0027780F2F54D801340DF1180A3E46002EFB
:1009EC0050D0204628F08EFB2AF8020B013E023430
:1009FC00F5E7084628F086FBADF81800687E06A9D6
:100A0C0027F03AFE0EA921201AF0A8FD8DF8580007
:100A1C0016AB6520212111E0084628F073FBADF8D8
:100A2C001800687E06A927F027FE0EA922201AF0CE
:100A3C0095FD8DF8580016AB65202221012221F07E
:100A4C00A5F8C5E0002840F0B580042008F052FB62
:100A5C00B3E080200DE0BBF1100F0CD80EA90020E4
:100A6C0052465B468DE84202039016A8414614F0AC
:100A7C00B7FD8DF863000DF1630365200621A3E03B
:100A8C0080200FE00F2D0FD80EA9002002974A46A8
:100A9C005B46CDE9005106A9CDE9031016A84146E5
:100AAC0014F046FD8DF863000DF1630365202021E1
:100ABC008AE016A90EAD2A4618F044F804469DF8B3
:100ACC005800F0B1614904EB4400002641F8206065
:100ADC0001EB800046609DF94B00B0F1FF3F03DC59
:100AEC0005F1130022F046FA0EAD1421284627F02A
:100AFC006FFC0420214614222B4624F0C9FE8DF8ED
:100B0C00186006AB652024215EE0182028F0FEFA60
:100B1C00002800F083800446BDF83800002118221C
:100B2C00234627F03BFC0546002818BFC825192092
:100B3C0028F0ECFA002867D007460130002D4BD086
:100B4C001821FF2227F03EFC50E0002049218DF8AF
:100B5C00180006AB652037E001208DF838000EAB8D
:100B6C0065204A21132230E028F030FA044605F1C2
:100B7C000D0028F0C7FA0246691D204624F078FCC7
:100B8C008DF838000EAB652051211DE0522020F06D
:100B9C00FDFC2748002104E0522020F0F7FC2448FB
:100BAC000121017002E0522024F0BAFC0EAB65204A
:100BBC004D2109E001208DF8380004F0E0002028D8
:100BCC0005D10EAB65204021012220F0DFFF00246F
:100BDC00204619B0BDE8F08F3146082227F054FDAD
:100BEC0007F109002146102227F04EFD6520252132
:100BFC0019223B463D7020F0C9FF3846192127F0D9
:100C0C00E7FB384628F080FA002CE0D0204618216B
:100C1C0027F0DEFB204628F077FAD8E7C825FFF747
:100C2C00E4BB00BF2884002048240020F0240020CE
:100C3C00FB2500206C910020BC250020AC2400205A
:100C4C00355D0200A962020059460100CC5A002011
:100C5C00119102002DE9F04F99B080466FF007001A
:100C6C00DFF8DCA80630ADF852009AF80000022834
:100C7C0014D1DFF8C808007880B9B8F8080010B1B2
:100C8C001020012101E0302000210AF029F9002078
:100C9C008DF81C0007A9522020F078FC0DF11C09DE
:100CAC0098F80810D8F804004A460FF071FEE8B125
:100CBC009DF81E609DF81F409DF82050BDF82670D1
:100CCC0027F0DAFE844211D127F003004FF6F871B9
:100CDC0080B288420AD0012D08D8022E06D29AF88A
:100CEC000000022808D19DF84D0028B1D32015F042
:100CFC00B8FB19B0BDE8F08FB8F82800ADF8480083
:100D0C00B8F83200ADF82A009DF82200D0B1D8F81E
:100D1C0004109DF81D209DF83830012026F064FC4D
:100D2C0008B1CF20E3E7DFF81C08C078012809D10F
:100D3C00B8F8280028F0C9F820B1417901F0E70192
:100D4C00083141719DF8210068B1BDF82610FF20D3
:100D5C0025F016F99DF82110E0B141F001012C2687
:100D6C008DF8211017E09DF83900002800F0EB8079
:100D7C009DF83D10FF2902D0002940F02681DFF8B4
:100D8C00C807BDF82620C18A8A4240F0278101207D
:100D9C00222607E0082601F00300012808BF46F0D0
:100DAC00110601209AF800104FF6F877012908D89F
:100DBC003446B20758BF64F07F04002808BF34469D
:100DCC0000E034469DF82200DFF87C575FFA84FB84
:100DDC0030B9E87A20B10BF02200222840F0808054
:100DEC001BF0400004901CD0012903D8A87B80077D
:100DFC0000F1D880119801780C2900F2DB800122D7
:100E0C0041F298438A401A4200F0D480032902D15F
:100E1C0040780D2805D007A821F0C4FB01283FF429
:100E2C0068AFA88CB8F8441081420AD198F84620D3
:100E3C00B8F84210B8F8280000230093002307F0FC
:100E4C001FFB9DF82200F8B1B8F84210B8F8280042
:100E5C0021F0B4FE002800F08F800646D8F804007C
:100E6C009DF81D10F2780844417B8A421EBF002277
:100E7C007260F1700130042124F0B8FD7168884271
:100E8C00FFF437AF013070609AF80000022834D2BA
:100E9C00A87B80077FF52DAF9DF84D004FF6F876B7
:100EAC0060B1BDF8280026F0EBFD002800F00781AA
:100EBC00D8F80400417801F0DF0141709DF82E0054
:100ECC00002800F0DF80D8F80400817901398171A5
:100EDC008DF82E1004F07F00090640F0D680D3E088
:100EEC000BF0420042287FF41CAF1198007800F000
:100EFC00FE0006287FF415AF72E77FF4FAAE95F882
:100F0C002600092802D004287FF4F3AE5FEA8B6038
:100F1C0000F19E80049800283FF4EBAE11989DF8E8
:100F2C0038100078042808BF022900F045810728F2
:100F3C0008BF042900F009810C2840F04D8107A856
:100F4C0014F05CFED5E6BDF8260022F0F3F802386A
:100F5C00DFF8F415B0FA80F0CA8A4109BDF8260012
:100F6C00904208BF023100293FD09DF81E20002A74
:100F7C0056D001F1400455E09DF84D00B8B3042063
:100F8C0025F0DAFA00283FF4B4AE01464FF4B27003
:100F9C000880B8F828004880DFF8B00500781DF00C
:100FAC002DFBA6E611980178A1F10C0212F10C0FA1
:100FBC003FF62CAFE88ABDF8262082427FF496AE2D
:100FCC00BDF8280023F0DEFB90E6109A9DF83C005B
:100FDC0020F0EEF930B101200026E3E690F826006F
:100FEC000428F8D100260020DCE600241AE095F84D
:100FFC006C0001287FF448AF11980078062803D1C3
:10100C00049800287FF440AFF81DBDF82A1080B278
:10101C0081423FF46EAE07A841461DF0AFFD68E675
:10102C0001F1200422F086F80138B0FA80F0400972
:10103C0044EA00069DF81E0000283FF4B2AE119859
:10104C00007826F071FD012818BF04F07E06A8E692
:10105C0098F8460027F0F4FB9DF82E00012840F08C
:10106C00B480B8F82800BDF82810814240F0AD805B
:10107C00BDF8260022F05EF8022804BF00208DF88F
:10108C002E00A2E004F07F000446210702D44FF0AA
:10109C00000A34E0E1B24A0722D4C9069DF82110B7
:1010AC0028D5C1F3820212B1072A18BF013A002ACF
:1010BC0008BF044601F0E30040EA820118E0D320A7
:1010CC0015F0CFF9DFF888040078002800F09F8035
:1010DC00DFF8801451F82000C0EB0010810098E07C
:1010EC009DF8210000F0E00100F0E30040EAD1019E
:1010FC008DF82110D8F804004FF4805A017295F83D
:10110C002600092801D0042823D1E98ABDF826003D
:10111C0088420AD022F00EF8022806D09DF8210051
:10112C0000F0030001287FF4E4AD9DF81E000028B8
:10113C0047D011989DF838100078042808BF022970
:10114C003AD0072848D1042946D107A817F00EFA3F
:10115C00CFE5E7B214F0610F46D0F80709D0B8F824
:10116C00281007A8A94614F091FF002864D004F0B9
:10117C009F040025E7B2A00609D598F84600D8F8D8
:10118C003C2027F05DFB07A815A905F095F978061A
:10119C0040F12681B8F8281007A80DF152022B4611
:1011AC000FF072FC00286FD00546119800780128CA
:1011BC0008BF4AF0100A13E107A9002010F0D8FB71
:1011CC0097E598F8460027F03BFBD8F83C2007A899
:1011DC0015A905F071F98CE503287FF48AAD07A8F1
:1011EC0000210FF05FF984E59DF81E0001285AD10B
:1011FC0011980078032849D0052854D1B8F8281044
:10120C0007A80DF1520200230FF03EFC71E5D14806
:10121C000168D1480268BDF82800904701287FF486
:10122C0068ADCE480168BDF828008847CC480168F5
:10123C00BDF8280088475CE525F064FD9DF82E106C
:10124C000546BDF8280019B9B8F82810884291D085
:10125C00B9F81610814204D1BA48807800283FF4BE
:10126C0089AFB8F8281007A82A4608F0DBFD00283B
:10127C0000F09B8038074AF0040ABDF8260048BFEE
:10128C00F01DADF8520075E70025A9E0BDF8260069
:10129C0026F0F6FB38B1B8F8281007A80DF1520269
:1012AC0000230FF0F1FB9DF82E0088B323F018F803
:1012BC0000287FF41EAD9DF83900A0B3109A9DF85C
:1012CC003C009DF83D1020F073F8002870D09DF87C
:1012DC003D00002875D0109927F0BBFD9DF82430F7
:1012EC00ADF8520011209DF823209DF821104AF0F2
:1012FC00400A002B08BF0920002A18BF083000291B
:10130C0018BF0130D8F804100A5C013A0A5462E0A4
:10131C009DF81E0001287FF47EAE119800780328FA
:10132C003FF4E7AC77E69DF82010BDF826000029C5
:10133C00ADF8520000F0D3804020BDF8261009F122
:10134C001D0200EAC4059DF820002B4618F092F807
:10135C0038B1D8F804004AF0200A017801F03F01B6
:10136C0001709DF8390048B1BDF8261009F1200034
:10137C0021F0FAF84AF0400AADF852009DF81E0030
:10138C00012806D0BDF82810BDF82600002214F064
:10139C0033FBBDF82810BDF826002A4612F02AF8B7
:1013AC00002818BF4AF0200A15E004F0DF04E0E63C
:1013BC00BDF82610BDF828000B22002319F00AFFF7
:1013CC0097E4BDF82600ADF8520027F07EFD00280A
:1013DC0008BF4AF0400A25F095FC05464FF6F87612
:1013EC00B01DBDF8521080B20F1A5E4818BF2F46C0
:1013FC000078012805D1F01DB8F8321080B2814276
:10140C002FD160B2B0F1FF3F3FF773AC002F3FF428
:10141C0070ACB8F8080027F079FE00283FF469ACEE
:10142C00B8F80820D8F80410054627F02DF99DF8D7
:10143C001E10002098F80830B8F8282016908DF867
:10144C005410BDF8521015ACCDE9007ACDE9020468
:10145C00284610F04DF870B3284627F055FEFFF7DC
:10146C0048BCB8F828108142CBD0701CBDF826209F
:10147C0080B28242C5D2BDF828008142C1D027F08B
:10148C0024FD0028BDD0017901390129B9D8408843
:10149C0001218DF85410ADF8600015AD28461EF0F2
:1014AC0031F80028ADD0281D1CF0A0FF0028A8D0D2
:1014BC0021F086F9A5E72348407800283FF419ACC1
:1014CC0000208DF81870ADF81900DDF826004FEAF1
:1014DC003040059005A826F057FFFFF70ABC3907E6
:1014EC003FF52AAF9DF81E1001293FF425AF0021CE
:1014FC0017F080FF20B1407901380228FFF41CAFAF
:10150C00B8F84410BDF8520021F058FB30B1807887
:10151C0025F038FE01380728FFF40EAFBDF828007F
:10152C0026F0AEFA18B104208DF8200004E7BDF8BF
:10153C002610BDF8280002223FE700BFFB25002043
:10154C004824002018240020288400206E910020BC
:10155C00ED25002048AC0200C4210020CC21002045
:10156C00C8210020F92500202DE9F0438DB0054657
:10157C0080780224252800F27380DFE810F0260022
:10158C00A400C400D700EA00F8000601B602B602B7
:10159C001D012E01B602B602B602B602B602460113
:1015AC004B01B602B602540158016101B602B602F3
:1015BC00B602B602B602B602B602B602B6026B01AB
:1015CC006E017101740178017F01DFF8D47500247C
:1015DC000E258DF804403878012807D801A81CF096
:1015EC006FFB04469DF8040005EB4005EEB2304657
:1015FC0027F08CFD002800F087824FF0000805468C
:10160C00431C0021082280F80080012026F0C6FE31
:10161C0027F038FA6872000A0721A872DFF88405EF
:10162C00E972007828733878012800F262829DF8FC
:10163C000420002A6A7300F05E8205F10E0000217E
:10164C002346914280F0578213F8022B013100F8A7
:10165C00022B13F8012C00F8012C9DF80420F0E764
:10166C00A0F140010D291FD8DFE811F00E00100188
:10167C003F023F021E012E013F023F023A0145018B
:10168C00500165013F02740101ACE91C0822201DC8
:10169C0026F0FAFF204619F071FABDF80600402139
:1016AC00ADF828000AABEEE0632800F069816428ED
:1016BC0000F07681E02840F0188200244720E021D9
:1016CC00002200230FE2202027F020FD002800F04C
:1016DC00C1812021FF22044626F074FE631C0120E8
:1016EC000021082226F05AFE0546002818BF0125C5
:1016FC0001AB84200021042226F050FE002800F0CB
:10170C000582023506E2E81C27F0FCFCADF804006B
:10171C00832027F01AFC014601AA832027F0E4FA63
:10172C008DF828000AAB6720022190E1E81C042107
:10173C0024F05CF90190842027F007FC014601AAF3
:10174C00842027F0D1FA8DF828000AAB67200321FA
:10175C007DE1612027F0F9FB0146EA1C612027F0AE
:10176C00C3FA8DF8040001AB672004216FE16220FD
:10177C0027F0EBFB0146EA1C622027F0B5FA8DF846
:10178C00040001AB6720052161E100208DF8040005
:10179C00E81C27F0B7FC6A7900F4F851002A00F035
:1017AC004981B1F5A06F04D04FF6FF71884240F02B
:1017BC004B814FF0FF3045E127F07AFC044627F0CF
:1017CC0075FCD949604301ACB0FBF1F1204627F020
:1017DC0009FC672009210422ABE0DFF8B4632D7902
:1017EC00306840B901AC204627F015F8012021469D
:1017FC000DF09EFF3060052D00F06981002D00F08A
:10180C006981642121F00AFC66E115F8032B67203D
:10181C0010216EE0E87823F02DF88DF8040001AB70
:10182C006720112113E100246720142102E0002419
:10183C0067201521ADF80840019401AB062252E156
:10184C0000246720162109228DF80C40CDE90144B3
:10185C0001AB48E1F52020210BE0F520212108E027
:10186C00F520222105E04FF6F570232108E0F52044
:10187C0024218DF8040001AB6720E8E0F520252138
:10188C00ADF8040001AB67200222E1E0E81C27F070
:10189C0039FCADF8060001AC204616F023FE231DE2
:1018AC00672041210822D3E0E81C0AA926F05CF845
:1018BC0000288DF8040000F0CF8001A81821FF2229
:1018CC00013026F07FFDF4E0E81C0AA926F04CF864
:1018DC0000288DF8040000F0F1804FF0FF30EFE0AD
:1018EC0015F8030F697821F07DFB288067204821CB
:1018FC0002222B46ACE0E87824F0C6F901AC014694
:10190C0020461CF019FD6720492111E0EC1C2046F3
:10191C0025F0E6FC002818BF2046B5F80B1018F08F
:10192C0081FC01AC014620461CF006FD67204A21D3
:10193C00242223468CE001ACE91C0822204626F028
:10194C00A3FE204626F058FC8DF828000AAB672031
:10195C004B217CE04FF0FF3095F80380691D01901E
:10196C00ADF81000CDE90200FE208DF806002879B4
:10197C0003288DF8300020D10AA827F072FB21E053
:10198C000024E91C08228DF8284001AD284626F0D9
:10199C007BFE28461CF02AFD0AAB67206321A1E0E0
:1019AC00B5F80B006A7B0024E91C8DF8044009F0A3
:1019BC0007FC01AB6720642194E0084627F0A2FBEA
:1019CC00ADF82800AF7B002F00F0DD807E0095F88D
:1019DC000D90304627F09AFB002800F0D48005F1DA
:1019EC000F013246044626F04FFE00940AA94046E9
:1019FC004A463B460CF0DCFE002800F0BA808378A7
:101A0C0001784278057946798DF806308DF8041006
:101A1C008DF80520C3788DF809608DF808508DF885
:101A2C00073001A98B1D811D40794200184626F014
:101A3C002BFEA5E0B1F5A06F03D04FF6FF718842E5
:101A4C0002D100205549086001AB67200621012214
:101A5C0020F09CF8002448E0182027F057FB40B3F6
:101A6C00BDF828100446009006200022182323F00D
:101A7C00F9FEB8B9BDF8285001AE21461022701CF1
:101A8C0026F002FE444F05EB450506F1110057F810
:101A9C00251027F0A7FA07EB8500416806F1150021
:101AAC0027F0A0FA2046182126F092FC204627F0B9
:101ABC002BFB01AB672044211922C9E7BDF8280094
:101ACC00ADF8050001AB672045210322C0E7314981
:101ADC0001220A7020F019FC002467200A218DF8DD
:101AEC00044001AB012220F051F820460DB0BDE8B6
:101AFC00F08385F80D806720002132462B4620F0BC
:101B0C0045F8284627F000FB7CBBA3E7019800BAF8
:101B1C00C4F809000AAB83200021022226F03EFC07
:101B2C0020B1043506E000BF40420F00BDF828008C
:101B3C00A4F80D0004F10F0361200021012226F00E
:101B4C002DFC002818BF083504F110036220002179
:101B5C00102226F023FC002818BF103523462570D0
:101B6C0067200121202220F011F8204627F0CCFA22
:101B7C0070E74FF6FF70ADF808006FF480300190FD
:101B8C00204627F0C1FA01AB67204D210E225FE7FA
:101B9C00F8900020B9250020CC8B0020D890002094
:101BAC0048240020F02400202DE9F04F85B08478E3
:101BBC000226362C00F2BE820546DFE814F06C01DA
:101BCC00740172007C017800BB02BB0281003700FB
:101BDC004C008C009F00AD00BB02B5009001BB0215
:101BEC00BB029A01AD01BB01BB02BB02BB02BB0233
:101BFC00BB02BB02BB0237004C00BB02BB02BB02E8
:101C0C00BB02BB02BB02BB02BB02BB02BB02BB02E0
:101C1C00BB02BB02BB02BB02BB02BB02BB02BD00D0
:101C2C00EB00CB01FF005B005B00DB0127F0C2F98E
:101C3C00242840F0AA8102AB352000210422002484
:101C4C0026F0ACFB002800F0FC81012002228DF86C
:101C5C0010000020FCE100208DF8100027F0AAF9FC
:101C6C000646092C40F0ED8095F8059095F8068015
:101C7C000720EFE0DFF82465306880B1406A70B16E
:101C8C0002A927F0A0F90546342C40F02C822846F6
:101C9C0027F038FA002800F02582042041E20320C6
:101CAC003FE2DFF80835612002210A223FE202AC54
:101CBC00E220214623F034FC61200421082288E133
:101CCC0027F078F90446681D27F01CFA242C40F004
:101CDC0087810020FBE1E878032800F29781281D1A
:101CEC0027F010FA0246E878DFF8B81431F8101033
:101CFC00DFF8B404007827F072F988E1E87803285B
:101D0C0000F28981DFF89C1431F81010DFF8980488
:101D1C0000781CF0E9F87FE127F091F8ADF80800A5
:101D2C0002AB61200C2103E1002661200E2101226F
:101D3C008DF8086002AB1BE2DFF8606401208DF8BF
:101D4C0010003068002800F02C810069002800F099
:101D5C00288102A927F037F9042123F047FE002837
:101D6C0000F0EC81044627F0D1F9002800F01C812A
:101D7C002146054626F02CFB3068BDF80C10224697
:101D8C002B4606690298B0478DF81000284627F0BC
:101D9C00BBF909E1DFF804442068002800F0088151
:101DAC008069002800F0048102A927F00CF9206852
:101DBC00BDF80C10826902989047FAE0DFF8DC73EA
:101DCC003868002800F0FB80C069002800F0F7801C
:101DDC0002A927F0F8F89DF80850BDF80AB0BDF834
:101DEC000C90044627F08EF9A6788046F72E28BF73
:101DFC006FF00806B01C5FFA80FA504627F086F99F
:101E0C00002800F09D81012D044608BFBBF1000F96
:101E1C0000F09A813868A11CF3B24246C569029859
:101E2C0000914946A8470746002840F093810027B7
:101E3C006120332152462346667027701FF0A6FEA0
:101E4C0088E1681D27F05EF98146E81D27F05AF9F4
:101E5C008046092002AF242E18BF2F1808BF352644
:101E6C00304609EB080527F070F8854201D90220AD
:101E7C0057E1B9F1000F04D1304641463A4621F002
:101E8C002DFD304641463A4626F02EFF002800F044
:101E9C00E5800A2045E1E878012802D0002840F0CE
:101EAC00488126F059FC40F259600121ADF8080038
:101EBC0002AB61203CE00120EC1C8DF80800E22014
:101ECC0021461FF063FB30B901200821224626F081
:101EDC000BFF8DF8080002AB6120032126E1E878A6
:101EEC00291D012800F0E180002840F0E580E02069
:101EFC00DFE027F05FF80446681D27F003F9242C77
:101F0C000FBF00200146204626F0D0FF8DF80800B8
:101F1C0002AB6120122109E127F04CF824280CBFF8
:101F2C00002027F012F8ADF8080002AB6120132155
:101F3C000222FCE0E8788DF8080099488068D0F817
:101F4C00302402A9E02090478DF8100004AB6120EA
:101F5C001421EBE0914C206898B3806A88B302A9F5
:101F6C0027F031F82068BDF80C10826A029890476F
:101F7C00014627E0894C206868B3C06858B327F045
:101F8C0019F82168C968884726E080466938002618
:101F9C0080B2032838BF0126681D082C40D1057873
:101FAC0041E003208DF8100004AB61203021BDE02E
:101FBC0003208DF8100004AB61203121B6E003271B
:101FCC00CDE0002102AC204627F00CF86120322134
:101FDC0004222346ABE0032026F013FF3621A5E0B4
:101FEC0005F10806ED790146A8426CD9204600227D
:101FFC0026F074FE09288DF808006AD1002D68D0EF
:10200C0020462946324626F06FFE62E0022026F07A
:10201C00F8FE0A218AE0022026F0F3FE0B2185E06F
:10202C0027F070F80546404626F08FFF0227A8429D
:10203C0088BF7700CFB100268DF80870612021464B
:10204C0092E002988DF810400422ADF812000220A4
:10205C008DF8110004AB6120082168E0012E62D1DB
:10206C00E22039461FF092FA5BE0471BB8B2F72822
:10207C0028BFF727B81CC6B2304627F047F800280F
:10208C0060D01FFA87FB00F1020982464846594688
:10209C0026F09EF9404629465A464B4626F07EF9D4
:1020AC000546002867D00A2770E00878022814D269
:1020BC0052201FF06BFA00E002208DF8080002ABF2
:1020CC0061200F2132E02046324626F007FE8DF8C3
:1020DC00080002AB6120072128E002A9522023F05E
:1020EC001FFAECE702359DF8080015F8018BBDF8D6
:1020FC000C7001280ED1BDF80A0058B9384641467B
:10210C002A4621F0EBFB012F04D1E22029461FF0D7
:10211C003DFA01273068394642462B46466A0298FA
:10212C00B0478DF8100004AB6120214601221FF04E
:10213C002DFD0026304605B0BDE8F08F052031E7B7
:10214C0010270CE0102776E7A9F169000328BFF4EB
:10215C0061AE0227204626F0D7FF002FE9D00026DB
:10216C008DF80870612033218DF8096002AB0222D2
:10217C001FF00CFDDEE78AF8017000276120214674
:10218C00324653468AF800701FF000FD504626F088
:10219C00BBFF002D7FF44FAFCBE700BF84250020A1
:1021AC000C0100204CB102006C910020E8B0020040
:1021BC002DE9F04F8FB00C4648070FD4200441D4C2
:1021CC00E00400F19781200600F1C081A00700F126
:1021DC00D481200500F1F3810020B4E1DFF8200563
:1021EC000178062900F2AD81DFE811F007009401B7
:1021FC00AB01AB019901AB01A001DFF81055DFF881
:10220C0004152A7891F82B30022A02D19E0600F18F
:10221C0098815E0700F19D819B0740F19281042318
:10222C00037091F82C30DB0700F08B8191F82E3085
:10223C00002B00F0528225F0BCF80420012101F0A3
:10224C0059FD57E2DFF8C8040394DFF8BCB4DFF89B
:10225C00B094DFF8C474DFF8AC44DFF8B054DFF8A6
:10226C00BCA448F20208008802909BF800001BF006
:10227C0069FE002800F03A8106460078D3282DD15B
:10228C00F089404540F019813878002800F015811C
:10229C0099F80000012840F0108126F045F900283B
:1022AC0040F00B817088002840F00781A24604ACF6
:1022BC001221204626F08CF826F020FC30462146D0
:1022CC0017F0BEFEBDF81C00B0F5285FC0F088808A
:1022DC00012002211EF006FD54462AE099F8001058
:1022EC00884217D1012834D0032840F0E6802878A2
:1022FC000138012800F2E180B078012851D0002883
:10230C0040F0DB807078002800F0BF8000201DF0CA
:10231C0011FAD2E00A2811D194F82B00BA46B71C56
:10232C003071A16909B138468847384624F0BAFCA7
:10233C005746DFF8D853DFF8E4A3BEE0297800292C
:10234C0040F0BB80092840F0B880A168B01C8847D9
:10235C00B3E028780138012800F2AF80707860B1C2
:10236C0094F8330094F83410013084F83300C0B280
:10237C00884202D9012000219DE099F80100032830
:10238C0058D0022871D0012840F097803878002866
:10239C0000F08C8026F0C8F8002800F09280012014
:1023AC0085E07078002875D026F06CFB4FF6FE7136
:1023BC00884203D1BAF81600884207D0AAF8161042
:1023CC00ADF8281053200AA91FF0E0F81DF0DAFF31
:1023DC0024F0C8FC00208AF826001CF0C9FE6CE032
:1023EC00CF48006809A90AAA16F0ACFB0746029868
:1023FC005446C64DDFF824A3874212D29DF838000C
:10240C0010B1FD208DF838000420394614220AAB97
:10241C0023F03EFAC34907EB470001EB8000012192
:10242C0041720020012184F83200012001F062FC8D
:10243C00B94F42E0A2460AACAB20002122461BF069
:10244C00A9FF042004945446DFF8D0A2AF4D8DF8B8
:10245C00140004A80FF0A8F926F050FB9BF800001C
:10246C004FF4805141F288321DE0012020714FF46D
:10247C008060ADF828000AA818F046FB26F03EFB59
:10248C00A4484FF4805102680BE00FF0C1FF606963
:10249C0098B9A2E702204FF4805140F6B83289F87F
:1024AC0002009BF8000026F09AFD06E0002084F85C
:1024BC0032000120012101F01DFC304624F04CFFBC
:1024CC00D3E694F8350020B1E0690028F5D08047B8
:1024DC00F3E70020002102220023ADF8280002209F
:1024EC008DF830000AA825F0E1F8B5E7039880F4E0
:1024FC00004028E0854800780138012859D88048E8
:10250C00017803294DD0012953D1417800201EF0C8
:10251C00E9FB4EE0012001211EF0E4FB11E024F068
:10252C0048FF0420012101F0E5FB0AE000213222E2
:10253C000170744880F82A1073480421007826F042
:10254C004EFD84F004000FB0BDE8F08F84F08000E5
:10255C00F9E70522027091F82C2092072CD591F8FE
:10256C002E204ABB052202600120487000201BF07F
:10257C00CFFD022024F05AF9E3E7644800780138D3
:10258C0001280BD80020CDE90A000AA812F016F990
:10259C0020B15D48022100781AF0A6FF84F00200F9
:1025AC00D1E78178022904D10121817000201EF02D
:1025BC0075FB84F48050C6E705200021B3E753482F
:1025CC000078002840F08680DFF838A1DAF80C504B
:1025DC00002D79D004A80DF1280B01300BF1040665
:1025EC000390002D6DD0A87A18B10138A87200069E
:1025FC0046D19AF83180B8F1000F11D00020A91CF7
:10260C0008228DF82800304626F03EF8584618F07F
:10261C00B5FA28B12A88BDF82A00314622F028FFE5
:10262C00AF1C0DF127015A46384616F08BFA81463D
:10263C00384609A922F07DFCB8F1000F05D09DF8B1
:10264C00380040F0020002281CD1DAF80800A0B1D2
:10265C0003983946082226F017F8022000220C2392
:10266C008DF81000BDF82400ADF81A00264800784B
:10267C0004A9009109211FF086FE28461DF0E0FCFC
:10268C00ED68AEE7384623F005FA9DF827000128DF
:10269C00DBD15846142125F09BFE224A09EB490058
:1026AC0000215B4642F8201002EB800014224160AE
:1026BC004172FF2049468DF83800042023F0E8F8D9
:1026CC00C3E7DAF80C0028B90F484FF40061007822
:1026DC001BF00AFC84F4006035E7013A012A09D8A2
:1026EC00032202600120487001201BF011FD012023
:1026FC0024F09CF8287800287FF423AF04205CE7B2
:10270C00DC900020DC200020759100204824002063
:10271C00AAB102008C250020D0250020288400209E
:10272C00B0900020CC5A00202DE9F04F89B020F059
:10273C00F5FFDFF810158122DFF81485DFF814A5FA
:10274C00DFF82045DFF814E50A70DFF8FC140860A8
:10275C00DFF8F804FF2101700020DFF80415A8F859
:10276C0000008AF80000DFF8F0040968007891F89E
:10277C0008B04FF6FE718EF8000059448AB2A16879
:10278C00D1F80031DB899A4200F267810422DFF82C
:10279C00DC54A8F80020DFF8D02412689668330EB9
:1027AC00CEF80C60C6F301592B706FF0FF0303EAEF
:1027BC001627B3B2D1F8B86047EA1327AEF8047005
:1027CC0036781EB9B9F1020F00F04781B9F1030F49
:1027DC0000F043811B0A03F0070316B1002B00F035
:1027EC003C81DFF88CC4042B9CF800C008BFBCF102
:1027FC00000F00F032813EB1DFF878643678862E17
:10280C0002D1022B40F02981BB0416D4BBB203F0D9
:10281C000703022B08BFBCF1000F20D0DFF85414C3
:10282C000978862909D10020764620F0AFFFDFF821
:10283C004004B64690F800C0307800284ED0BCF169
:10284C00000F4BD1012800F0088103283FD002284B
:10285C0044D1BEF80400400740F0FF803EE0D1F8C0
:10286C00D40090F88300022800F0808027460520D1
:10287C00147BF246A946A8F8000026F0D3F80546CA
:10288C00DFF8F003007886286DD1B868016C096810
:10289C0011B9D0F84C05804760B20021002626F013
:1028AC0079FCB9680A6C12685077086C00688677F6
:1028BC00086C0068C477284626F061FBBAF804104F
:1028CC0099F8000001F010011CF0A6FC4EE0BEF8D7
:1028DC00040000F00700032840F0BF80BEF804009D
:1028EC00010700F1BA80810402D4810500F1B580A2
:1028FC009EF80E20C2F38107012F00F0AE809609DE
:10290C00012E00F0AA80B9F1010F11D840F002019C
:10291C0001F0070103290BD117B93F2A40F29D8022
:10292C0037B9A168D1F8AC100978002900F095806E
:10293C004FF6FB71B9F1020F0BEB010C19D1CF4B18
:10294C00D95D9B5D03EB01090023402AB7FA87F29E
:10295C0038BF012352091A40430616D4002A08BF77
:10296C0009F1020915E0284626F009FB24F07EFF48
:10297C0075E0C14B402AD95D9B5D03EB010908D37F
:10298C00420648BFA9F1020903E0002A18BF4FF024
:10299C000209C0F300205FFA89F11FFA8CF30A1ABE
:1029AC008EF801009A4258DC60440391B346401AF9
:1029BC00A168AEF806007430D1F8501280B2884786
:1029CC00A6490028886048D07421CDE9019725F0EC
:1029DC00FFFCA24F0020B870A548007820B93879C8
:1029EC0000F020008AF8000078789AF80010DFF8E0
:1029FC0078C24FF000092E4600299A493DD0002894
:102A0C004FF000003AD1B88800F00700032807D037
:102A1C00012832D18868D0F8D40090F8820060B3D5
:102A2C00C8684069007818B125F05AFBFE280DD013
:102A3C008C488068D0F84C02804738B98948806847
:102A4C00D0F844028047002800F0F780834F012023
:102A5C00B870DFF814C22E4610E025F0A9F925F065
:102A6C00E1FF814900240A6813681C7112680A602E
:102A7C0026F085FA09B0BDE8F08F0020BC6804F19F
:102A8C00740184F830B06160A1657978BB88FA88EC
:102A9C000029A381029B228184F83A30337808BF45
:102AAC00994697F80EB084F84990019DA4F85C20E3
:102ABC00FF22B8F80030A273CBF301195E1A797BB0
:102ACC00A8F8006001F0780160F3820101EB0900C5
:102ADC002074280600F0AE80DCF8000004AF039AE6
:102AEC0010FA86F000F10801384626F07BFB56FA06
:102AFC0085F0CBF38105A8F80000207C00F040089D
:102B0C00CDB3B9F1020F06D1B8F1000F03D0B4F870
:102B1C00440004AF06E0BDF810000237A4F84400EE
:102B2C00A4F84200564EF189884203D04FF6FF714B
:102B3C0088425ED1032D11D104F13200394626F0C2
:102B4C0090FA464CF11CA068323024F028F8454924
:102B5C0000284ED094F80EB008370EE037F8020B70
:102B6C00B1898842608606D04FF6FF713B4C884293
:102B7C003C493ED101E03B49384CBBF1400F20D3DE
:102B8C00B9F1020F06D16DB9B8F1000F0AD1334873
:102B9C00806803E0A068017C490603D439880237B9
:102BAC00A0F84210BBF1C00F06D32C4C3946A068DC
:102BBC00283026F056FA03E0284C3888A16808859E
:102BCC0028498968A088D1F8AC201278B2B1B9F143
:102BDC00020F13D200F00700012802D003282FD1D6
:102BEC001E4C6DB9264AA368D289B3F84230934281
:102BFC0006D01BF006F818F091FD30E700F0070046
:102C0C00032806D0012815D1D1F8D40090F8820001
:102C1C0080B1A068D1F848128847104A50B90020FA
:102C2C00D17B9070907BC1F3011100F078000844C7
:102C3C009168087408F02CFC11E7084FB87808E785
:102C4C00064CDDE78291002008910020879100203E
:102C5C008690002085910020849100205423002030
:102C6C00489100200C0100209890002095910020A4
:102C7C00949100208A91002040B102003CB10200E6
:102C8C00C08F00202DE9F84305460C46480414D4A7
:102C9C00A00025D4A0075FD4600500F18180200539
:102CAC0000F10881200700F13D81600040F1F880BF
:102CBC0019F0B6FE24F08044F2E025F0B3FEDFF804
:102CCC0024140F6D3FB1D7E90A1202F0E04201F073
:102CDC000A0189184BD026F052F924F48044DFE025
:102CEC00BB48DFF80474016841F080010160B878DA
:102CFC00012804D1042020F0E7FF0020B87025F053
:102D0C0091FE0646B348406D016804208847DFF801
:102D1C00E0130A68904219D12A7EBAB1FA68AAB1B6
:102D2C00DFF8C003806C002800F09780C16840F683
:102D3C0003020988914206D0C06840F6040100885D
:102D4C00884240F08A8005F1140088E040F6C412F5
:102D5C000860C5E9042284E009F0F8FCDFF884037C
:102D6C00006C002840F09D8024F0020498E0D7E924
:102D7C000A65D7E90A12AA43B143C7E90A1226F039
:102D8C00FEF8B8680028A8D056EA0500A5D0D7F8F8
:102D9C0008C03869B7F9301032462B46E0479CE73B
:102DAC0025F040FE054623F07BFC002800F0B780A0
:102DBC00CC48876B002F00F0B280DFF82C83042006
:102DCC00CC49002288F81800C64825F08BF826F06C
:102DDC0000F9C94826F0D0F8C4480068006B804759
:102DEC00C8F810000125042088F8025021F072FD6B
:102DFC00386990F82810C8F80400490703D5436ACD
:102E0C0004210022984701201BF024FCD8F8040070
:102E1C00457613F0E9F8D8F8040081680B461A4699
:102E2C005B684BB11E88A6F60306072EF7D805FA89
:102E3C0006F616F0830FF2D0537B03F0F003013348
:102E4C0053730023FD6853602D88A5F60305012DEF
:102E5C0000F28A80C8F810309FE005F110001EF0D7
:102E6C0085FA304626F08BF821F04CFD78B12E6AAD
:102E7C0028466FF4807100224FF00073B0479948D8
:102E8C00806B10B119F0CCFD01E044F00204EE6946
:102E9C002846002100224FF08063B04724F00054F4
:102EAC0034B1984821462830BDE8F84326F044B99F
:102EBC00BDE8F8838C4EB078012804D1042020F0B2
:102ECC0003FF0020B07021F01DFD38B170686FF465
:102EDC00807100224FF00073056AA847306950B129
:102EEC0082480068006B804732697168801A000B59
:102EFC00C860002030617B4D81490022284624F0B7
:102F0C00F1FF02203076286C20B17E480221283057
:102F1C0026F012F919F084FD24F40064C0E726F0C1
:102F2C0058F841E025F07EFD054623F0B9FBA0B131
:102F3C00DFF8B48198F8000000070ED498F900006F
:102F4C0000280AD4684613F0DDFA08B1009820B1C5
:102F5C00DFF8B49199F8610048B326F03AF819F00B
:102F6C005FFD24F008049BE7034633F8385FA5B1F6
:102F7C0090F8445090F8456005F0F00580F8445006
:102F8C0006F0F005013580F8455000255360C56307
:102F9C004587507B00F0F000507358480022C26106
:102FAC000160012023F0CEFF24F4806478E7002632
:102FBC000127602E10D009EB0600817A31B187729F
:102FCC00407A07FA00F0C0B220F098FE2036F0E705
:102FDC00CC2108408C010010032088F818004648CA
:102FEC0025F0CAFF25F0F5FF444F3E4D00227869CD
:102FFC0000207861F968F8602846444924F072FF93
:10300C003A480068006B8047D8F80C10D8F820209C
:10301C00411A02EB1130B0EB113F38BF4FF0FF30CB
:10302C0098F82410C8F8200021B1D8F80810B0EB9B
:10303C00C12F20D923F096FFB8B140F609004146C4
:10304C0021F83C0F002048804A7B02F0F00201324C
:10305C004A730A7B02F0F0020A734860F861396027
:10306C00B8F83E0010F4406FFAD00020C8F82000E9
:10307C00012088F824001DF01DFB2548002101606B
:10308C000220002123F05EFF022020F01DFE102004
:10309C0011F0DEFF98F8010020B9D8F80400503088
:1030AC0026F046F81B48807810B90D2011F0D0FF9F
:1030BC0098F8250028B1002088F82500052020F07C
:1030CC0003FE002088F818001348C8F81C000220E2
:1030DC00B5F85610B5F85420914208BF072018F0E7
:1030EC00B5FD3CE7101F0020AC1C00208C0100102B
:1030FC00FC2400208966020008880020001004408F
:10310C00B1050100501E0020A084002091CA0100CE
:10311C000000046094B002008DFD00002DE9F04F1A
:10312C008DB084780226142C00F21F820546DFE84D
:10313C0014F02900150015004A0085001C021C0221
:10314C001C021C021C021C021C021C021C021C0283
:10315C001C028E009C00AF00BE00CC0001206A78DF
:10316C00022C8DF83100089240F0C080E878291DBF
:10317C0003288DF82C0040F0E18009A8082225F0E6
:10318C0083FAE0E010208DF82400102025F0BEFF1B
:10319C0098B10446DFF8E00321466060E81C10F0AB
:1031AC0051FC8DF8240028B9204623F01BFB8DF828
:1031BC00240010B1204625F0A7FF002609AB64209F
:1031CC0000210122C2E10020CDF82A00ADF82E002A
:1031DC00CDF8260002208DF82C00E81C25F092FF7B
:1031EC00ADF824006979A8798DF82D1025F0DCFA5A
:1031FC008346E81D25F086FF95F80C908046687A8A
:10320C00AC7A95F80BA04FEA49078DF83100384697
:10321C0025F07CFF002800F01081CDE90748064618
:10322C004FF0000805EB0800474570D00D3025F035
:10323C0069FF26F8080008F10208F3E7E87820F0A7
:10324C0061FE8DF8240009AB6420042189E1E97842
:10325C00032900F25281281DDFE811F0040051010E
:10326C0055015D0118F094FD76E1E81C25F04AFF4C
:10327C00C04C6668002E00F0E4806A79002A00F0E9
:10328C00E4803368A91D184425F0FEF90020D9E02C
:10329C00B84EEC1C04212046376822F0A7FB002F07
:1032AC004AD0B968814200F0A0803F68F7E7A8884F
:1032BC00ADF82400E87809A924F022FA8DF8320040
:1032CC000DF13203642013214BE10026E878ADF8B0
:1032DC00246009A923F030FCBDF824000DF1320361
:1032EC0014210222ADF8320064202FE1E81C0221E7
:1032FC008DF82C1025F006FFADF82400002005F108
:10330C000608ADF82E0068798DF82D0026E0BBF18B
:10331C00000F00F0B580437B0DF131010E30CDE98B
:10332C000496CDE9000107985946CDE9020A09A88F
:10333C00089A1DF061FEA4E0012000E1084625F08A
:10334C00E1FEADF82400287B8DF82D0005F10D0071
:10335C0025F0D8FEADF82E0005F10F0898F8000006
:10336C0025F022FA054608F1010025F0CBFE98F86D
:10337C00036098F804A098F805B08146022C8DF8EB
:10338C00326009D108F1060025F0BCFE074608F1B1
:10339C00080007F10A0104E098F8067008F107002C
:1033AC0039464DB10A3189B2FB2907D3DFF8C48104
:1033BC00D8F8040000286ED0022009E00DF132018B
:1033CC008DE8030C09A84A463B46294604F0A8F9A7
:1033DC00089E8DF8310006F0E000202840F0C480F3
:1033EC000DF1310364202146BBE0EC1D204625F095
:1033FC0089FE6D7A002D00F0978005F10209824656
:10340C00484625F083FE002800F098800026457081
:10341C0080462A460670786800EB0A0108F1020023
:10342C0025F032F95FFA89F26420122143461EF02E
:10343C00ADFB404625F068FE97E010208DF8320079
:10344C0024E010208DF8240016E0D6F800C0F38A92
:10345C00B28A3169757EB77E06F11800CDE900C0DD
:10346C00301DCDE9025704F05BF98DF8240060683B
:10347C0025F04AFE0020606009AB6420112170E049
:10348C0002208DF83200304625F03EFE0DF132035D
:10349C006420032165E007F11C0025F037FE0028AD
:1034AC00C8F8040055D000F11C010C22016000206A
:1034BC008DF83100D8F8040009A9043025F0E4F89F
:1034CC00D8F804000F214FF47A7205612A4DC176A9
:1034DC0080F81AB080F819A00676C782A0F814906C
:1034EC000821287825F07BFD089E00283FF473AF57
:1034FC002878082119F0F8FF6DE702202CE00078FD
:10350C001AF022F828E0007825F04EF918B324F0D0
:10351C002DFE002020E025F0F5FDA97925F054FBC7
:10352C00B0FA80F0400917E03068B84201D1386831
:10353C003060384625F0E8FD002000E01020002621
:10354C002070642012210222234666701EF01EFB9E
:10355C000BE010203CE701208DF8240009AB64201F
:10356C00102101221EF012FB002630460DB0BDE8E2
:10357C00F08F00BF8C2400206C9100202DE9F04FBF
:10358C008FB00C4608040CD4A00426D4DFF8885362
:10359C00287802282DD1E10740F00181A10641D500
:1035AC0058E0DFF86C0300781AF0CCFC90B101788D
:1035BC00DFF8602305460020602808D0135C083033
:1035CC008B42F9D1104450F8041C284688472846F1
:1035DC0023F0C2FE84F4004595E11DF013FC28B1E4
:1035EC000546FDF737FB284623F0B6FE84F400555C
:1035FC0089E1A1062ED4012814D8E10600F1178127
:10360C00610600F12F81210600F13D81E10500F1F9
:10361C003F81210500F14181E10400F154816104F5
:10362C0000F15B81A10700F1E080A10500F1FA80B7
:10363C00210700F11181610500F11981E0034FF0C0
:10364C00000540F160811BF085FFB648C57084F41D
:10365C00803558E1AE4F202138781FF057F8DFF84D
:10366C00C4820125D8F80810084317D025F020FD96
:10367C00054625F01BFD68434FF47A71B0FBF1F061
:10368C00D8F80810401A4FEA500538BF6FF00045C3
:10369C00002908BF0D46002D00F0C2800020042137
:1036AC00002222F00DFD06464FF0060A4FF0FF09EE
:1036BC004FF6FF780DF1080B002E4DD0304604214B
:1036CC000022374622F0FCFC06463889401B38BFE6
:1036DC00002038810004EFD1B87BD0B301280AD187
:1036EC007889400707D4386887F80DA0B721407B4C
:1036FC001DF040FBE0E739685A468DF80690ADF8AE
:10370C000480086AC97F0DF043F901281BD1B87BEE
:10371C00B97A8DF838000907788A40F08002ADF844
:10372C00362006D540F4C070ADF83600387B8DF8E5
:10373C003A00786910B1007BADF81800584601A921
:10374C00002202F0B9FE387B87F80DA016F052F873
:10375C00B2E701207873AFE7DFF8C8816C4F22F035
:10376C000FFE00200121002222F0AAFC18B13878AB
:10377C00202119F0B9FE002004210022002622F09D
:10378C009FFC002847D006890421002222F098FCD7
:10379C00A0B10289B1B2914228BF1646F4E7654840
:1037AC0090F82C100F2906D190F82600022802D38D
:1037BC00002021F05FF884F00105A4E0A8B2B1B2BA
:1037CC00814223D9D6FA55F0202180B242003878B4
:1037DC0025F005FC25F06CFC054625F067FC6843DC
:1037EC004FF47A71B0FBF1F615E05348007818B33A
:1037FC0002AD284625F06DFB25F032F94F490B78C8
:10380C004F490A7829461AF0A1FE22E03878202187
:10381C0019F06AFE0026C8F8086084F0200572E0F2
:10382C0000259CE715F022FC84F400756BE008F091
:10383C00F3FA84F0100566E03E48418B012025F038
:10384C005BFC2878022804D13148012100781AF059
:10385C004BFB84F0020556E03248012184F0080548
:10386C00817050E00CF010FB84F040054BE0022816
:10387C0008BF15F0BFFE2F480121808C25F02EFCCF
:10388C0084F480653FE024F05BF984F080053AE035
:10389C0022F072FA84F4807535E01BF097FB204817
:1038AC00007801280CD11D48007848B14FF47A718A
:1038BC0000FB01F216484FF40061007825F08CFBF8
:1038CC0084F400651FE01748017819B100210170DC
:1038DC001BF07CFB84F4805515E01448006880B123
:1038EC001149097801290CD180471148006800B1B1
:1038FC00804707484FF480414FF47A72007825F0E6
:10390C006BFB84F4804528460FB0BDE8F08F00BFF8
:10391C006E9100201CAA020048240020E225002001
:10392C00E325002018240020E0250020B4210020ED
:10393C00C021002028840020BE250020E625002080
:10394C00E82500202DE9FE4F8846080426D45FEABE
:10395C00C87004BF0020BDE8FE8FE548056825F05F
:10396C00A7FB044625F0A2FB60434FF47A714FF697
:10397C00FF72B0FBF1F14FF6FF70002D00F01A81D1
:10398C002B886C88CB1A9BB29C4240F21C81E31AA8
:10399C0094B2A342B8BF1A46ED68EEE7DFF840A335
:1039AC00CDF804809AF800001AF0CCFA002800F048
:1039BC00FC8006460078012840F0EC80DAF8041010
:1039CC0096F83390D6F814B096F8138021B1484687
:1039DC008847002840F0DE80718896F8310002227A
:1039EC0022F016F90546002842D0287A297CA0F14D
:1039FC000108FF2900F0BB80707F4F46C00718BF3D
:103A0C000027E97C287D0144B94204D8E974FF21E0
:103A1C0001FA00F06874A969A87C96F83020896ACC
:103A2C0010FB0710F16A24F02FFE287D697CB7FB90
:103A3C00F0F202FB107001228240D2B20A436A7487
:103A4C00C8457CD196F83010AB7C13FB0713A969E1
:103A5C008B844FF4FF7303FA00F0C0B21043FF28BD
:103A6C0068746CD1287C1AF0C9FDFF2028747FE0A3
:103A7C00707FC00700F08E80B07F24F095FE002888
:103A8C0000F0888004461C2025F040FB002800F044
:103A9C0081801C21054624F09BFCB07F02A923F0F9
:103AAC004BF89DF8090002212875284623F09AF856
:103ABC00708896F8312096F8301096F83330A8803C
:103ACC00287DEA71FF2202FA00F0687460680078C1
:103ADC00A9742874302013FB010080B222F02CFD55
:103AEC000028A8615DD004461A20B11C2060708C9F
:103AFC00A080A01D23F012FEF27F04F13000B17FF4
:103B0C0096F82830C4F81CB084F81980A062307C78
:103B1C00E273744A217563750121A075928C22821F
:103B2C00F28EA285F28C6282B6F81100A4F817000E
:103B3C009AF8000085F8089019F0D6FC55E725F0A6
:103B4C00B7FA044625F0B2FA60434FF47A71B0FB31
:103B5C00F1F065492880634809780079484364216D
:103B6C0048436249097800FB0100688000E04F4639
:103B7C00E87C297D6A7C01440139B94218BFFF2ACF
:103B8C000CD186F83300708806F11C0186F83420BD
:103B9C0016F07FFF304623F0DFFB03E7C845F9D171
:103BAC00EFE7284623F02EF8F4E7019880F4004064
:103BBC00BDE8FE8F92B282424BD049480121007879
:103BCC0025F00DFA45E0A879022806D1287CFF28BB
:103BDC0037D0A86923F0C0FB33E025F069FA04461E
:103BEC0025F064FA60434FF47A71B0FBF1F03F4971
:103BFC00288095F83800097888421BD295F8362031
:103C0C00FF2A06D195F83720013085F8380085F861
:103C1C00362095F8351095F8394082F0FF030020D6
:103C2C000126C7B2A7421DD206FA07F71F4214D1CC
:103C3C000130F6E7EA8BA87E95F82A10E9231EF0EE
:103C4C00AFFE284622F0DEFF25480121007819F04E
:103C5C004BFC88F00100BDE8FE8FFBB201441A4317
:103C6C0085F83620AB8F95F83440C8B204FB10337E
:103C7C009EB2A64203D2FF2285F8362002E0FF2A2C
:103C8C0008D12346184A174E1278367972436426A7
:103C9C00724302E095F83A2023466A802A8D0E067C
:103CAC0006D022F0200244432A852A6C224404E0E8
:103CBC0042F020012A6C2985297A85F82E10E979A1
:103CCC006A6285F82D10D9B269840549496811B129
:103CDC0088470028B8D105F1100004F0BBFCB3E70D
:103CEC006C24002028840020D6250020DC25002010
:103CFC00FC6F00207FB50138072800F24C810C4680
:103D0C00DFE810F008002C0054006E008900490117
:103D1C00A600C900CB4800780138012800F23B818D
:103D2C00002C00F047810020032100241FF090F8A4
:103D3C00C64DC74E0420042132222870307825F05D
:103D4C004EF90820002107F0CBF830786C704FF456
:103D5C00805104B0BDE870401AF0C6B800200025B0
:103D6C0024F02AFDBB480121017004208DF80D00C0
:103D7C0074B1B548B34C45852078012803D1072090
:103D8C0023F030F92078022802D1062023F02AF9FA
:103D9C00AE48042132220570AD48007825F01FF999
:103DAC00A94890F82B1001F0FE01F2E0A54800782C
:103DBC000138012800F2EF80A54804213222007856
:103DCC0025F00DF9002C00F00F819F4C9F4801212C
:103DDC0001702069002800F0EC801FF0F7FBF8E779
:103DEC000120002C8DF80D007BD0974800219B4AB8
:103DFC0080F82A10984824F099FE924C20780128DB
:103E0C0003D1072023F0EEF82078022870D1062089
:103E1C0023F0E8F86CE002208DF80D008A48002CA5
:103E2C0073D000218D4A80F82A108B4824F07EFE36
:103E3C00002003211FF00CF8824C2078012803D1BC
:103E4C00072023F0CFF82078002877D1092073E0E1
:103E5C007C4D00208DF80D00002C28787BD018B9F3
:103E6C00092023F0BFF82878022806D10820002169
:103E7C0007F036F8042023F0B5F811F043F9734835
:103E8C000021C822017070480D2180F82A1070485A
:103E9C0025F037F878E005208DF80D00694800789A
:103EAC00022878D1002C00F0C38068480022C17829
:103EBC00C270017042F20800002107F011F862484C
:103ECC000D2190F82B2080F82A10C17802F0DF0227
:103EDC00002980F82B200CBF04200D2023F082F841
:103EEC0059E05848007818B95748022180F82A1030
:103EFC005648002132220170554825F002F85248EC
:103F0C0090F82B1001F0FD0143E0082180F82A10F5
:103F1C004C490978012911D890F82E0070B900206D
:103F2C000DF10A018DF80A0052201DF02FFB24F030
:103F3C00BDF91EF073FB002023F054F84348002118
:103F4C0032220170424824F0DCFF3F4890F82B10DD
:103F5C0001F0FB011DE03C4C022812D194F82E001C
:103F6C0078B194F82B00002140F0200084F82B004D
:103F7C0005208DF80D00082006F0B2FF0A2023F072
:103F8C0031F8022084F82A002F4890F82B1001F009
:103F9C00EF0180F82B102C480022032390F82A0004
:103FAC008DF80C002A48007803A900910A211EF014
:103FBC00EAF97FBD244C0720254D4FF4805184F83D
:103FCC002A0001208DF80D00287819F08DFF0020B3
:103FDC00002621F0E9FF2878022141F2883284F88A
:103FEC002B6024F0FCFFD6E7174C022000218DF843
:103FFC000B1084F82A001548017094F82B000DF171
:10400C000B0100F0FD0084F82B0001208DF80D0051
:10401C0052201DF0BBFA24F049F91EF0FFFA0020E3
:10402C0022F0E0FF20690028B5D01FF0CFFAF9E7A5
:10403C000548022180F82A1090F82B1041F020013D
:10404C00A7E700BF48240020DC200020DC900020E3
:10405C0075910020D325002028840020A82500205D
:10406C0092B0DFF8D492D9F8000010B1002180F89A
:10407C004510483020F00EFE24F0D4FC804607207A
:10408C0011F0FEF917F018FE10B1AC4824F068FEE0
:10409C001AF038FB01AD284624F066FB04270020FB
:1040AC0029468DF8047024F067FBA54C206023F0A2
:1040BC00B3FF0AAD284624F00FFA002029468DF8EC
:1040CC00287024F011FA9F4E306023F0AFFF06AD3C
:1040DC00284624F011FA002029468DF8187024F097
:1040EC0013FA3168984D286019B9984824F038FEB5
:1040FC00286810B9964824F033FE206810B995480A
:10410C0024F02EFE1CF05EFDD9F800004FF0FF34B9
:10411C0038B1CDE9104410A9082223F003FA012884
:10412C001BD1CDE91044082024F0F0FF002846D024
:10413C0005460026052E04D824F081FEA85302362D
:10414C00F8E74FF6300029460822E880824824F030
:10415C009BFA284624F0D8FF09E0D9F80010CDE9E5
:10416C0010440029DFD07C48082224F08DFA10AAD4
:10417C000120082124F0B2FD092800D0D8B921F083
:10418C0031FD800712D4CDE91044CDE90E440EABBD
:10419C0001200021082224F001F960B90EA810A911
:1041AC00082223F0BFF9002800F0C0806A4A0120E1
:1041BC00082124F099FD6849E2201DF0E7F912F07E
:1041CC006DFC282024F0A2FF644E0028306055D0EE
:1041DC00634F644C07F10C0524F08FFE24F0ECF9CE
:1041EC003068056007F1100524F087FE5E49896888
:1041FC00D1F84C1388473068456007F1140524F05A
:10420C007CFE1CF0E5F83068856007F1180524F099
:10421C0074FE19F027FD3068C56007F11C0524F009
:10422C006CFE1FF0FFFB3068056107F1200524F0E0
:10423C0064FE1EF0A7FA3068456107F1240524F0EE
:10424C005CFE1DF01BF93068856107F1280524F030
:10425C0054FE23F0F9FC3068C56107F12C0524F0FD
:10426C004CFE20F09FFC3068056207F1300524F00D
:10427C0044FE387023F0DEFF3068456218F0F6FD1E
:10428C0024F05CFB404624F07AFE17F023FE24F069
:10429C00FEFD01201DF07AFE19F00CFF3448007869
:1042AC00022808D131480078012804D14FF400408D
:1042BC00012106F015FE2A4D4FF48041287824F098
:1042CC0047FC2C484FF0FF3100680DF0FDFDDFF886
:1042DC00A8904FF0000868684FF0FF310DF0F4FD26
:1042EC003068002750F82710096821B9791C092F6C
:1042FC000F46F7D3EFE724F09DFD316851F82710F6
:10430C000C68C1F8008024F073FE59F827200020B7
:10431C0021469047044624F08DFD316851F8271052
:10432C000A6822430A6024F063FED4E70A480EA907
:10433C00082224F0A9F93EE784250020DCAA02001B
:10434C00C4900020C8900020CC900020FAAA020053
:10435C000DAB020020AB02007690002040910020B3
:10436C00681F0020A13C02000C010020FB2500204E
:10437C00482400201C9100205CAD02002DE9F04F78
:10438C0089B08A4608040DD45FEACA7040F01D81DA
:10439C005FEA8A7000F12B815FEA0A7000F13381C9
:1043AC00002042E1A24F387819F0CCFDDFF888925A
:1043BC00A04C06464FF0000B48F21508002E00F0FA
:1043CC0001813078312838D0322849D0D32840F0B8
:1043DC00B380F089404573D0382840F0AD80CDF8DB
:1043EC0020B0CDE906BB304606A920F033FB9DF882
:1043FC001C10052968D8307B002840F09D809DF862
:10440C001D00002800F09880052800F29580069881
:10441C0023F089FD002840F08F80707C87497870EC
:10442C00708808809DF81D00214601388DF81D000C
:10443C0006A890E82C002CC17EE0B87803287BD825
:10444C0099F82E10804823F06EFD002874D1FF20BF
:10445C007C49607170880880B088794908806BE06D
:10446C006079FF2814D0002016F060FA0246B9F8E3
:10447C00701078783346CDF800B012F057FE6079A2
:10448C00002859D038780821322224F0A8FD53E0B6
:10449C0099F81810706820FA01F2D2071ABF31444B
:1044AC00097A002106F1080200231B2B42D020FAC6
:1044BC0003F5ED0702D0D55CA9421ED80133F4E711
:1044CC00304621F0D1FC37E0FF293DD0FE2956D1F2
:1044DC0099F872109DF81E00884202D860BBFF2923
:1044EC002AD11CF055FE069900201B2859D021FA20
:1044FC0000F2D20757D10130F7E7B9F86E004F49F7
:10450C00334608804E4802884E480188102000909F
:10451C00002012F00BFE0120F870B87840B93C2056
:10452C0002214EF66022B880387824F058FDB87815
:10453C000130B87084F805B0304622F00DFF3878A1
:10454C0019F000FD064639E799F872109DF81E0027
:10455C00884203D80028EFD1FF29EDD11CF018FEBA
:10456C00069838B1D9F82810814203D0C9F8280030
:10457C0022F048FDBDF8200023F096FBDCE7307BF1
:10458C000028D9D170882D49802200230880707CA6
:10459C00CDE900BBCDE902BBCDE904BB11F07EFC3B
:1045AC00CAE71B2000E0C0B299F818108142C3D0B2
:1045BC002649087099F80700642100FB01F238784D
:1045CC00012162E78AF400402FE020491A4C087858
:1045DC002076E1201CF0DAFF22F014FD0020A4F874
:1045EC007000012016F0A2F98AF001001DE01048BD
:1045FC008188B1B101394EF66022818000780221A8
:10460C0024F0EDFC0FE00B4C607938B12179206877
:10461C0023F089FC10B96079013860718AF00800C8
:10462C0003E0002181708AF0020009B0BDE8F08F30
:10463C00FC2200201890002028840020529000209A
:10464C007E8F0020368D002000F8FF07719100202E
:10465C002DE9FE4F074608680024B0B1D7E9018A5E
:10466C000E4624F0DFF98146D8F8E800082888BF08
:10467C000124B068204202D17068204208D0032087
:10468C003074484624F07BFC00242046BDE8FE8FA5
:10469C00D8F8C01069B198F8F8100029EFD00621AD
:1046AC003174D8F8C410C8F8C4604E6198F8FC1086
:1046BC000DE000210522C8E93066C8E93411C8E9CB
:1046CC00361198F8FC10002908BF01223274002220
:1046DC000129726109D102204FF4E02188F8FC0015
:1046EC0098F8FB001FF0D6FF7068894901388842A2
:1046FC0005D8042020F0EEF8062020F0EBF802207C
:10470C0020F0E8F898F8F80040B9DAF83C00316885
:10471C00814203D298F8FC0000286CD0D8E93610FE
:10472C0009B118B900E028B324F0EFFBDAF8000067
:10473C00416941F001014161484624F020FC98F8A0
:10474C00F80008B10124A0E708F16C05D8F8EC10CA
:10475C00284624F088FB0028F4D0D8F8C0000321A8
:10476C00017438460AF048F928460021002424F048
:10477C007AFB8AE79AF8040024F0A6FC654CDAF878
:10478C0010100222206991FAA1F1B1FA81F143686B
:10479C00D8F8CC004068006898472069DAF8141003
:1047AC0002224368D8F8CC0091FAA1F1B1FA81F158
:1047BC004068006898479AF8040022F063FA9AF867
:1047CC00040024F083FC24F0A0FB0020C8F8E000D7
:1047DC00D8F8C0000068B0F5806F01D924F095FBC3
:1047EC0098F8FE000028A1D1DAF80000416841F0E9
:1047FC00020141609AE798F8F90020B1D8F8EC0072
:10480C0001307FF48BAF484624F0B9FBB2683AB163
:10481C00D8F8E8000221092838BF0121009103E0F3
:10482C0008F1F40200200090746834B1D8F8E80064
:10483C000227092838BF012702E008F1F6040027F7
:10484C00DAF80000334D416841F002014160D6F8BE
:10485C0000B0D946BBF1000F40D0D8F8E800019267
:10486C0009284FF0010011D22A68B9F1000F1FD0AE
:10487C00C0071DD02178DAF8000092689047002814
:10488C001EBF3C44A9F101090120EDE72A68B9F1EA
:10489C00000F16D0C00714D02188DAF800009268F7
:1048AC00904700281EBF3C44A9F101090120EDE707
:1048BC00DAF80000D26802A99047DDE901201070F7
:1048CC0007E0DAF80000D26802A99047DDE9012080
:1048DC0010800098ABF1010B0244BBE7D8F8F00054
:1048EC00DAF80010CA680240102802D1002AF9D167
:1048FC0001E0002AF6D0706822F04CF8D8F8C0100D
:10490C000020C8F8C400C8F8C00008741AE700BF3B
:10491C00FEFFFF0FC40100102DE9F04F85B0884653
:10492C00080418D4A9480078012802D85FEAC87195
:10493C0055D15FEA88714CD4022807D1A44800787D
:10494C00012803D15FEA487000F188805FEA0870A3
:10495C0057D400202BE1DFF85CA29AF8000019F084
:10496C00F1FA002800F021810546807FC8B9688CD7
:10497C00132816D190486E8800F11C090020494676
:10498C004F46002818BF071D086850B1014631F882
:10499C00042BB242F4D144683C6024F0B5FB2046B1
:1049AC00F3E7A87A05F1020B022840F0E480DFF867
:1049BC00089295F83170BBF8006009F11C00006892
:1049CC00A0B10188B14202D18178B94242D0043001
:1049DC00F5E779480121017088F00200E7E076489C
:1049EC00406900B1804788F00100E0E0D9F81C4034
:1049FC00002C57D001206168002955D001300C469D
:104A0C00F9E77048DFF8B091807BD9F81C6000079B
:104A1C0060D424F04DFB044624F048FB6A4A604302
:104A2C004FF47A71B0FBF1F0D9F818101288411AD2
:104A3C0091427AD3B1FBF2FB0BFB02F2511A084400
:104A4C005E49C9F818001FFA8BF00978884288BFB4
:104A5C008B4641E059490978C170A3E05E495D4835
:104A6C0000224FF6FE7300240978023079B130F839
:104A7C00025C9D4208D04588013D45802D0406BF4F
:104A8C00027020F8023C012401390630EEE734B103
:104A9C00484804214FF4FA72007824F0A0FA88F008
:104AAC00040084E000240020454980B20988884233
:104ABC0061D2082024F02AFB00285CD0002106805B
:104ACC00877041603D490978C170D9F81C1079B3E1
:104ADC0060603FE04FF0010B00205FFA8BF44FF069
:104AEC00000A071D002808BF09F11C0796B1F078D1
:104AFC00C0FA5BF1A042F17006D8756830463D6093
:104B0C0024F002FB2E46F1E7716830460AF1010AE7
:104B1C000E46E6E75FEA0A4007D100200821C9F8F3
:104B2C0018002448007819F0DFF988F008003EE0FE
:104B3C00C9F81C002348807B00070BD424F0B8FA7A
:104B4C00044624F0B3FA60434FF47A71B0FBF1F0F1
:104B5C00C9F818001B48807B00070CD59AF8000098
:104B6C0008211DF0D3FD30B91748082102889AF8A6
:104B7C00000024F031FA2878022810D0012811D135
:104B8C00297EAA89EB7C05F11C006C696E7E8DE890
:104B9C005A0005F11003594605F00EFA02E02846BA
:104BAC0015F08CFA284622F0D7FB88F4004005B0AB
:104BBC00BDE8F08F6B9100205C220020DB250020EB
:104BCC00A225002028840020A625002048240020AF
:104BDC00FB25002030760020B82500202DE9F04F71
:104BEC0087B0851C8346284624F0C3F901AC0646E1
:104BFC001821204623F0ECFB9BF801A004F10B00DC
:104C0C002946009524F02DFA6FF001009BF80A104C
:104C1C0002240122ADF8180000208DF81A408DF8FE
:104C2C000C0001F00800C1F3C007890782EAD00527
:104C3C0007D4002808BF0124B946A8460027002540
:104C4C0007E004244FF000094FF00008002808BFCB
:104C5C0003248548007850EA0A000BD0834890F86A
:104C6C002600082809D123F05FFC00285AD0BAF19D
:104C7C00010F57D14FF0C30901E04FF0C2090025D5
:104C8C00BAF1000F10D07F48007890B9BAF1010F3B
:104C9C000FD1002E55D00020214601228DF81A008C
:104CAC0001A814F0A7FA0AE001A81BF057F986B97D
:104CBC001CE001A82146524614F09CFAB6B1717959
:104CCC00BAF1020F41F04002727104BF41F0600171
:104CDC0071719BF80A10490603D5717941F0800176
:104CEC007171B17900240131B17100E00124B0FA85
:104CFC0080F149090D422CD107D1002D18BF8146F6
:104D0C0041F20100494619F044FB14B9009819F01E
:104D1C006DFBBDF818004FF6FE71884218BF24F0E9
:104D2C00FFF916E0DEB33279A24218BFBAF1020FD6
:104D3C0012D1D01EC0B201281BD857EA050020D1D1
:104D4C002AE00220214601228DF81A0001A814F055
:104D5C0051FA07B0BDE8F08F4FF0000900995346A7
:104D6C008DF81A903088ADF8180024F0B9F90125A7
:104D7C0086E7501EC0B201280ED849EA0800012867
:104D8C0007D1308821F074F950B93088ADF818008B
:104D9C0008E0308824F0C4F9009819F027FB0026AD
:104DAC00BDF818004FF6FE7188421ED120F058FF56
:104DBC0010B1BDF8180011E0BAF1000F04D02C4D61
:104DCC00288821F055F930B19BF80A0000F0020058
:104DDC001FF0B0FD00E02888ADF818004FF6FE710A
:104DEC00884202D14FF0C70949E79BF80A20009985
:104DFC00534624F075F910B14FF001093FE71D48F7
:104E0C00016811B1BDF818008847BDF81800009969
:104E1C00224606F0D5F90646174818490A68007864
:104E2C004FF4803124F0DBF801211548C17096B1A4
:104E3C00AAF10100C0B2012807D81020BAF1020F64
:104E4C0008BF08207179084370714FF000090125E3
:104E5C008DF81A9014E74FF6FE7000254FF00109FB
:104E6C000026ADF818000BE724230020288400202E
:104E7C009C250020C82100206E91002094B10200D6
:104E8C0018240020482400202DE9F04F89B0A04EB2
:104E9C000546A04F30780328387040F0AC800020D5
:104EAC003070387002AC204624F0E7F82046002120
:104EBC0022F09DFA984CB8602E21204623F088FAF7
:104ECC004FF0FF30A0822061E06020F0F5F9002067
:104EDC0029461BF037FC07F11001F86024F05EF84E
:104EEC00D7E905128D4DB1FBF2F0C0B2022828BFF4
:104EFC00022020702870B2F5005F7AD1B1EB403FF0
:104F0C0077D3F968002974D04FF6FF7100274FF062
:104F1C0088586FF0030B61808149616087426DD2C4
:104F2C00FEB2002108AA0423304623F07DFB07EBD8
:104F3C00470004EB800A0898D14600F47C0129F85C
:104F4C00160FB1F5402F04D000F07F41B1F1164F90
:104F5C003ED1C0F301418AF819106FF0FD0151FAEE
:104F6C0080F21021022A31D3C2B27E2A2ED003A89D
:104F7C001EF050F9304600214FF088524FF4005388
:104F8C004FF4005523F050FB1BFA85F5A8B250F8EE
:104F9C0008104A1C01D10328F6D801220126D3B2ED
:104FAC00042B06D8CBB2FF2B18BF16460132090AC8
:104FBC00F5E740F808105C480399006842685B48C4
:104FCC00904755FA86F199F80000544DAAF81C1038
:104FDC00C0B2702807D0782803D0FE2805D07C28D2
:104FEC0004D1E77002E0277100E0A7702878013740
:104FFC0094E70120307009B0BDE8F08FE178FF290B
:10500C0003D0DFF81081012529E02179FF2904D094
:10501C00DFF80081E170022521E0A178DFF8F4804F
:10502C00FF290ED00131B1FBF0F202FB101000EBA6
:10503C00400104EB8101898B09B1E070EBE7FF20A3
:10504C00A07000250020E57011F040FF98F80010CA
:10505C0008437E2188F8000000201EF0E7FDA078B0
:10506C00FF2813D12D48E17800780131B1FBF0F223
:10507C0002FB1010A07011F029FF98F800100843E3
:10508C00FE2188F80000A0781EF0D0FD2548E278BB
:10509C00022D057002EB4200627004EB8000818BE4
:1050AC00E18028D0012D2BD103AD002788B2182820
:1050BC0026D30739D0B22A4689B213F0C7FD9DF822
:1050CC001700400717D5E088BDF81A10E6782A4675
:1050DC0003230097401A073881B2304607F0A0FF2F
:1050EC00E27820B9BDF8181009B196420BD096425F
:1050FC0006D0E188DAE701206071002000F018F892
:10510C0098F8000077E79DF81C001AF0D1FDF7E73E
:10511C00B0250020D02100201C8B00206D91002098
:10512C00FF00002079910020D801001000400340BE
:10513C002DE9F04F97B0DFF884828246D8F804004E
:10514C0018B18047002800F0D9809D4F0120002124
:10515C00042300247E78F873BD7808AA304623F027
:10516C0063FA9DF82200800703D07879002800F0BC
:10517C00C68030460621F8224FF0F80922F0C4F917
:10518C0006EB460407EB840080F818909DF820008D
:10519C00702803D0304670211EF048FDCDF810A0C9
:1051AC00069608AA2846002104234FF0000923F094
:1051BC003BFA9DF82000FE2803D02846FE211EF065
:1051CC0035FD28460621FE22FE2622F09DF907F128
:1051DC001600BA7888F80090059500EB8401C98810
:1051EC000192798205EB4501039100EB810101F8F5
:1051FC00026F7E78029106EB460100EB8101B1F85B
:10520C0006A002EB420100EB810030F8061F07916B
:10521C0000900EA81DF0FEFF0DF124090FAD1FFA32
:10522C008AF0172860D398F80000002860D1AAF102
:10523C00070B30464A461FFA8BF7394613F006FD2A
:10524C00BDF8324004F11000B8421BD89DF82E0076
:10525C00962817D19DF82F00C10742D1800740D561
:10526C00ABEB0400C1469DF82D20214633461FFAB6
:10527C0080F8404616F004FF08B3C846AAF1080BA4
:10528C000DF124095C46A0B216282ED93628A4F1BB
:10529C00160730462A4688BF2027E41BBBB2A1B2B2
:1052AC0023F0C2F93804EED015FA87F010F8010C8F
:1052BC00962801D0013FF5E707EB040AAFE704F1AC
:1052CC00070A079F41491FFA8AF313FA87F00A1A53
:1052DC003046414623F0A8F95744C8460DF124093D
:1052EC000797ABEB040A9AE7D34698F8000050B145
:1052FC0034480E990068426833489047002420B225
:10530C0017B0BDE8F08F079E019C1021C6F5005226
:10531C00A6F1100083B2C1F2001220461DF096FFD8
:10532C0098F8001008430E9988F80000254800688A
:10533C00426825489047224D00980123B5F9122068
:10534C00697B06802046A5F814B02E821FF09EFFC4
:10535C00B5F91420A97B204602231FF097FF049A6D
:10536C00002A08BF1022288A7C21C0F500509042E8
:10537C00B8BF7821059F38461EF058FC069E304673
:10538C0011F0A4FD88F8000038460621FC22FC240C
:10539C0022F0BAF80298FE21AE70EF706F700470B4
:1053AC00039805EB8000808BE88030461EF03EFCB5
:1053BC0000206871E888C0F50054A0E7D0210020D7
:1053CC001C8B0020D801001000400340002000116D
:1053DC002DE9F04F8DB0044600209A4616460F4634
:1053EC00CDE90B00CDE9090087488568804614F0AB
:1053FC0000FB1C2803D014F0FCFA1B281BD13088AE
:10540C0040F60201884218BFB0F5C15F03D1F07BB2
:10541C00022810D93EE043F6070188420BD196F8DA
:10542C002400032807D33069784940F0806020F0CD
:10543C00604088422ED100206FB366B3387825FACD
:10544C0000F0C00726D03046002123F059FE7048EA
:10545C00C4E90176006880B109A800900CA90BAAD8
:10546C000AAB304609F03AFF0B980B214FF6FF724E
:10547C00502321F0A7FCFF280CD023F0D3FA654F62
:10548C0006467878012802D840B1012070E03046F9
:10549C0023F075FD00200DB0BDE8F08F09F092FEF1
:1054AC005D480DF10409016841F0020101605B489F
:1054BC00C8F80000484623F047F9DFF864B15A49B0
:1054CC004A469BF801009BF8005003905548283041
:1054DC001EF062FC554856494A461EF05DFC484693
:1054EC0023F04AF8DFF84C81534A19214B460295B8
:1054FC0040461CF0FDFF514A08F11C001A214B4696
:10550C001CF0F6FF4E484F4923F00BFD4E484F4917
:10551C0023F007FD4E48006810F4402F06D04D4A8A
:10552C0007F128000421002321F084F89BF80200E5
:10553C0010B10D200FF0A4FF08F1400022F0DDFCAB
:10554C0008F1380022F0D9FC4349002007223876B4
:10555C00B8843862386181F860200521C7E90210EF
:10556C003E49F96138700420002121F0EBFC787879
:10557C002C4941F8204001307870304623F0FFFC74
:10558C00BAF1000F06D10DF1040A3549202250461C
:10559C0023F028FEDAE90012BAF81000DAE9063531
:1055AC00002AB2FA82F608BF40F6C412626121608A
:1055BC0060832563760926764FF4FA76C4E9036294
:1055CC0001226276274AC4E90722C4E90923DAF8E2
:1055DC000C0000B12062DAF8140000B16062DAF855
:1055EC00080000B1E06104F13800C82122F0F0FE9F
:1055FC0004F15000002121F0E5FC1B4904F1B80036
:10560C0023F08FFC204646E7CC2108400F00000514
:10561C00A4240020AC1C002000200940110000E054
:10562C0094B00200501E0020BD75020010890020AD
:10563C00F5410100101F002091CA0100CDAD010001
:10564C004C880020656602000888002069750200FD
:10565C00B44F005051F60100A08400208DFD0000D5
:10566C004CAE0200BB2601001B9002002DE9F04F4E
:10567C0087B000240293002A00F03D81074603A85E
:10568C0092460E464FF0200B10300190504610F809
:10569C00011B25290CD0002900F02A81022EC0F014
:1056AC00D980013E002F00F0D48007F8011BD1E017
:1056BC009AF801002D2806D19AF802000AF103038A
:1056CC004FF0010C03E00AF102034FF0000C3028FC
:1056DC000CBF13F8011B01462A2920D1029D2A6810
:1056EC00111D2960D2F8009013F8011BB9F1FF3F8E
:1056FC00DCBFC9F100094FF0010C2E291ED11A464E
:10570C0012F8011B2A291CD1029D2A68111D29603F
:10571C009D1C126859782B4622EAE27821E04FF062
:10572C000009A1F13002092AE7D809EB890201EB43
:10573C004201A1F1300913F8011BF2E74FF0FF38D9
:10574C000FE04FF00008A1F13003092B08D808EB4B
:10575C00880301EB4301A1F1300812F8011BF2E7B9
:10576C00134630284FF0000241F0200008BF4A4693
:10577C006C2808BF13F8011B9A46692901D06429CB
:10578C000CD1029B1868011D19609045C8BF424698
:10579C00DDF8048001686FF009031EE075290AD05A
:1057AC00A1F16F00092858D8DFE800F005695F5FA8
:1057BC00835F5F5F5F05029D2868031D2B6090452A
:1057CC004FF00803C8BF4246782908BF102375293B
:1057DC0008BF0A23DDF8048001684046654616F0D0
:1057EC00EDF8AC460546A8EB0001A9EB0100BCF1B5
:1057FC00000F0DD109E0022E05D3013E17B107F8B9
:10580C0001BB00E00027013801340128F3DA01382C
:10581C000A465AB1022E06D3013E1FB12B7807F867
:10582C00013B00E00027013A0135F2E70C44BCF1E2
:10583C00000F3FF42BAF0128FFF628AF022E05D343
:10584C00013E17B107F801BB00E000270138013415
:10585C00F1E700270134824618E7632905D1029A43
:10586C001068011D1160006804E0AAF10100022E0D
:10587C003AD300788DF80C00012103ADB5E7029AFC
:10588C00DDF804801023CDF800C01068011D1160F4
:10589C001099082200290168404616F08FF8054639
:1058AC004FF04000DDF800C005F8010DA8EB050134
:1058BC009BE7029ACDF800C01068011D1160109989
:1058CC0005680F480029002D08BF0546284623F01F
:1058DC0051F80146804538BF414618F1010208BF16
:1058EC000146DDF800C080E7002103AD82467CE76D
:1058FC000FB100203870204607B0BDE8F08F00BF14
:10590C00B09702002DE9FC470446019005789448B5
:10591C00465D9448E840ADF80260C00740F01E8137
:10592C000D2D13D1904E0DF10201B068D0F8282442
:10593C0053209047BDF802104FF6FD70814214D8E9
:10594C00208990B14FF0000AA146AEE00C2D0ED08C
:10595C00072D13D0052D0ED1A078012800F0FE8064
:10596C00207C304400F1240716E0B068CDE060687C
:10597C00C08AC0050AD44FF0000A09E0A07848B1EB
:10598C00A07D00EBC00006EB800705E04FF0010A9C
:10599C00374605E006F11B07ADF802704FF0000A20
:1059AC00384620F0C9FD38B38146072D44D1207804
:1059BC0089F80000607889F80100A07889F8020065
:1059CC000028E17889F80310D4F80510C9F8041000
:1059DC005AD0A07D002889F8080049D0A169002977
:1059EC0046D000EBC00009F110068200304622F0D0
:1059FC004BFEC9F80C6040E00C2D40F0AF80A14686
:105A0C0059F8040F002800F0A98023F00BF8804609
:105A1C0055488068D0F8541348468847384620F0DB
:105A2C008BFD8146404623F0AAFAB9F1000F00F035
:105A3C00958023F0B9F938E023F0B6F9052D34D16F
:105A4C0009F11806D9F804102422304622F01CFE65
:105A5C00D9F8141099F8102009F13C00C9F8046029
:105A6C0022F012FED9F804002430C9F814001CE00E
:105A7C00002089F80800C9F80C00A069A8B123F02F
:105A8C0043FB0020A0750FE01B2009F110061B2220
:105A9C0089F808003046A16922F0F6FDC9F80C60BF
:105AAC00A06923F031FB0020A0613048016819B1D6
:105ABC0048468847002846D10D2D2BD160680178C7
:105ACC008A0720D42A4AC1F38301927C91421AD1CD
